{
  "_format": "hh-sol-artifact-1",
  "contractName": "ReviewToken",
  "sourceName": "contracts/Contract.sol",
  "abi": [
    {
      "inputs": [
        {
          "internalType": "address",
          "name": "trustedForwarder",
          "type": "address"
        }
      ],
      "stateMutability": "nonpayable",
      "type": "constructor"
    },
    {
      "inputs": [
        {
          "internalType": "address",
          "name": "sender",
          "type": "address"
        },
        {
          "internalType": "uint256",
          "name": "tokenId",
          "type": "uint256"
        },
        {
          "internalType": "address",
          "name": "owner",
          "type": "address"
        }
      ],
      "name": "ERC721IncorrectOwner",
      "type": "error"
    },
    {
      "inputs": [
        {
          "internalType": "address",
          "name": "operator",
          "type": "address"
        },
        {
          "internalType": "uint256",
          "name": "tokenId",
          "type": "uint256"
        }
      ],
      "name": "ERC721InsufficientApproval",
      "type": "error"
    },
    {
      "inputs": [
        {
          "internalType": "address",
          "name": "approver",
          "type": "address"
        }
      ],
      "name": "ERC721InvalidApprover",
      "type": "error"
    },
    {
      "inputs": [
        {
          "internalType": "address",
          "name": "operator",
          "type": "address"
        }
      ],
      "name": "ERC721InvalidOperator",
      "type": "error"
    },
    {
      "inputs": [
        {
          "internalType": "address",
          "name": "owner",
          "type": "address"
        }
      ],
      "name": "ERC721InvalidOwner",
      "type": "error"
    },
    {
      "inputs": [
        {
          "internalType": "address",
          "name": "receiver",
          "type": "address"
        }
      ],
      "name": "ERC721InvalidReceiver",
      "type": "error"
    },
    {
      "inputs": [
        {
          "internalType": "address",
          "name": "sender",
          "type": "address"
        }
      ],
      "name": "ERC721InvalidSender",
      "type": "error"
    },
    {
      "inputs": [
        {
          "internalType": "uint256",
          "name": "tokenId",
          "type": "uint256"
        }
      ],
      "name": "ERC721NonexistentToken",
      "type": "error"
    },
    {
      "inputs": [
        {
          "internalType": "address",
          "name": "owner",
          "type": "address"
        }
      ],
      "name": "OwnableInvalidOwner",
      "type": "error"
    },
    {
      "inputs": [
        {
          "internalType": "address",
          "name": "account",
          "type": "address"
        }
      ],
      "name": "OwnableUnauthorizedAccount",
      "type": "error"
    },
    {
      "anonymous": false,
      "inputs": [
        {
          "indexed": true,
          "internalType": "address",
          "name": "owner",
          "type": "address"
        },
        {
          "indexed": true,
          "internalType": "address",
          "name": "approved",
          "type": "address"
        },
        {
          "indexed": true,
          "internalType": "uint256",
          "name": "tokenId",
          "type": "uint256"
        }
      ],
      "name": "Approval",
      "type": "event"
    },
    {
      "anonymous": false,
      "inputs": [
        {
          "indexed": true,
          "internalType": "address",
          "name": "owner",
          "type": "address"
        },
        {
          "indexed": true,
          "internalType": "address",
          "name": "operator",
          "type": "address"
        },
        {
          "indexed": false,
          "internalType": "bool",
          "name": "approved",
          "type": "bool"
        }
      ],
      "name": "ApprovalForAll",
      "type": "event"
    },
    {
      "anonymous": false,
      "inputs": [
        {
          "indexed": true,
          "internalType": "address",
          "name": "previousOwner",
          "type": "address"
        },
        {
          "indexed": true,
          "internalType": "address",
          "name": "newOwner",
          "type": "address"
        }
      ],
      "name": "OwnershipTransferred",
      "type": "event"
    },
    {
      "anonymous": false,
      "inputs": [
        {
          "indexed": true,
          "internalType": "address",
          "name": "from",
          "type": "address"
        },
        {
          "indexed": true,
          "internalType": "address",
          "name": "to",
          "type": "address"
        },
        {
          "indexed": true,
          "internalType": "uint256",
          "name": "tokenId",
          "type": "uint256"
        }
      ],
      "name": "Transfer",
      "type": "event"
    },
    {
      "inputs": [
        {
          "internalType": "address",
          "name": "to",
          "type": "address"
        },
        {
          "internalType": "uint256",
          "name": "tokenId",
          "type": "uint256"
        }
      ],
      "name": "approve",
      "outputs": [],
      "stateMutability": "nonpayable",
      "type": "function"
    },
    {
      "inputs": [
        {
          "internalType": "address",
          "name": "owner",
          "type": "address"
        }
      ],
      "name": "balanceOf",
      "outputs": [
        {
          "internalType": "uint256",
          "name": "",
          "type": "uint256"
        }
      ],
      "stateMutability": "view",
      "type": "function"
    },
    {
      "inputs": [
        {
          "internalType": "uint256",
          "name": "tokenId",
          "type": "uint256"
        }
      ],
      "name": "burn",
      "outputs": [],
      "stateMutability": "nonpayable",
      "type": "function"
    },
    {
      "inputs": [
        {
          "internalType": "uint256",
          "name": "tokenId",
          "type": "uint256"
        }
      ],
      "name": "getApproved",
      "outputs": [
        {
          "internalType": "address",
          "name": "",
          "type": "address"
        }
      ],
      "stateMutability": "view",
      "type": "function"
    },
    {
      "inputs": [
        {
          "internalType": "address",
          "name": "owner",
          "type": "address"
        },
        {
          "internalType": "address",
          "name": "operator",
          "type": "address"
        }
      ],
      "name": "isApprovedForAll",
      "outputs": [
        {
          "internalType": "bool",
          "name": "",
          "type": "bool"
        }
      ],
      "stateMutability": "view",
      "type": "function"
    },
    {
      "inputs": [
        {
          "internalType": "address",
          "name": "forwarder",
          "type": "address"
        }
      ],
      "name": "isTrustedForwarder",
      "outputs": [
        {
          "internalType": "bool",
          "name": "",
          "type": "bool"
        }
      ],
      "stateMutability": "view",
      "type": "function"
    },
    {
      "inputs": [],
      "name": "name",
      "outputs": [
        {
          "internalType": "string",
          "name": "",
          "type": "string"
        }
      ],
      "stateMutability": "view",
      "type": "function"
    },
    {
      "inputs": [],
      "name": "owner",
      "outputs": [
        {
          "internalType": "address",
          "name": "",
          "type": "address"
        }
      ],
      "stateMutability": "view",
      "type": "function"
    },
    {
      "inputs": [
        {
          "internalType": "uint256",
          "name": "tokenId",
          "type": "uint256"
        }
      ],
      "name": "ownerOf",
      "outputs": [
        {
          "internalType": "address",
          "name": "",
          "type": "address"
        }
      ],
      "stateMutability": "view",
      "type": "function"
    },
    {
      "inputs": [],
      "name": "renounceOwnership",
      "outputs": [],
      "stateMutability": "nonpayable",
      "type": "function"
    },
    {
      "inputs": [
        {
          "internalType": "address",
          "name": "to",
          "type": "address"
        }
      ],
      "name": "safeMint",
      "outputs": [
        {
          "internalType": "uint256",
          "name": "",
          "type": "uint256"
        }
      ],
      "stateMutability": "nonpayable",
      "type": "function"
    },
    {
      "inputs": [
        {
          "internalType": "address",
          "name": "from",
          "type": "address"
        },
        {
          "internalType": "address",
          "name": "to",
          "type": "address"
        },
        {
          "internalType": "uint256",
          "name": "tokenId",
          "type": "uint256"
        }
      ],
      "name": "safeTransferFrom",
      "outputs": [],
      "stateMutability": "nonpayable",
      "type": "function"
    },
    {
      "inputs": [
        {
          "internalType": "address",
          "name": "from",
          "type": "address"
        },
        {
          "internalType": "address",
          "name": "to",
          "type": "address"
        },
        {
          "internalType": "uint256",
          "name": "tokenId",
          "type": "uint256"
        },
        {
          "internalType": "bytes",
          "name": "data",
          "type": "bytes"
        }
      ],
      "name": "safeTransferFrom",
      "outputs": [],
      "stateMutability": "nonpayable",
      "type": "function"
    },
    {
      "inputs": [
        {
          "internalType": "address",
          "name": "to",
          "type": "address"
        },
        {
          "internalType": "uint256",
          "name": "reward",
          "type": "uint256"
        }
      ],
      "name": "sendInvite",
      "outputs": [],
      "stateMutability": "nonpayable",
      "type": "function"
    },
    {
      "inputs": [],
      "name": "sendMoney",
      "outputs": [],
      "stateMutability": "payable",
      "type": "function"
    },
    {
      "inputs": [
        {
          "internalType": "address",
          "name": "operator",
          "type": "address"
        },
        {
          "internalType": "bool",
          "name": "approved",
          "type": "bool"
        }
      ],
      "name": "setApprovalForAll",
      "outputs": [],
      "stateMutability": "nonpayable",
      "type": "function"
    },
    {
      "inputs": [
        {
          "internalType": "bytes4",
          "name": "interfaceId",
          "type": "bytes4"
        }
      ],
      "name": "supportsInterface",
      "outputs": [
        {
          "internalType": "bool",
          "name": "",
          "type": "bool"
        }
      ],
      "stateMutability": "view",
      "type": "function"
    },
    {
      "inputs": [],
      "name": "symbol",
      "outputs": [
        {
          "internalType": "string",
          "name": "",
          "type": "string"
        }
      ],
      "stateMutability": "view",
      "type": "function"
    },
    {
      "inputs": [],
      "name": "testFunction",
      "outputs": [
        {
          "internalType": "uint256",
          "name": "",
          "type": "uint256"
        }
      ],
      "stateMutability": "view",
      "type": "function"
    },
    {
      "inputs": [
        {
          "internalType": "uint256",
          "name": "tokenId",
          "type": "uint256"
        }
      ],
      "name": "tokenURI",
      "outputs": [
        {
          "internalType": "string",
          "name": "",
          "type": "string"
        }
      ],
      "stateMutability": "view",
      "type": "function"
    },
    {
      "inputs": [
        {
          "internalType": "address",
          "name": "from",
          "type": "address"
        },
        {
          "internalType": "address",
          "name": "to",
          "type": "address"
        },
        {
          "internalType": "uint256",
          "name": "tokenId",
          "type": "uint256"
        }
      ],
      "name": "transferFrom",
      "outputs": [],
      "stateMutability": "nonpayable",
      "type": "function"
    },
    {
      "inputs": [
        {
          "internalType": "address",
          "name": "newOwner",
          "type": "address"
        }
      ],
      "name": "transferOwnership",
      "outputs": [],
      "stateMutability": "nonpayable",
      "type": "function"
    },
    {
      "inputs": [],
      "name": "viewAllReviews",
      "outputs": [
        {
          "components": [
            {
              "internalType": "uint256",
              "name": "tokenId",
              "type": "uint256"
            },
            {
              "internalType": "string",
              "name": "reviewText",
              "type": "string"
            },
            {
              "internalType": "uint256",
              "name": "rating",
              "type": "uint256"
            },
            {
              "internalType": "address",
              "name": "writer",
              "type": "address"
            }
          ],
          "internalType": "struct ReviewToken.Review[]",
          "name": "",
          "type": "tuple[]"
        }
      ],
      "stateMutability": "view",
      "type": "function"
    },
    {
      "inputs": [
        {
          "internalType": "address",
          "name": "writer",
          "type": "address"
        }
      ],
      "name": "viewReview",
      "outputs": [
        {
          "components": [
            {
              "internalType": "uint256",
              "name": "tokenId",
              "type": "uint256"
            },
            {
              "internalType": "string",
              "name": "reviewText",
              "type": "string"
            },
            {
              "internalType": "uint256",
              "name": "rating",
              "type": "uint256"
            },
            {
              "internalType": "address",
              "name": "writer",
              "type": "address"
            }
          ],
          "internalType": "struct ReviewToken.Review",
          "name": "",
          "type": "tuple"
        }
      ],
      "stateMutability": "view",
      "type": "function"
    },
    {
      "inputs": [
        {
          "internalType": "string",
          "name": "review",
          "type": "string"
        },
        {
          "internalType": "uint256",
          "name": "rating",
          "type": "uint256"
        }
      ],
      "name": "writeReview",
      "outputs": [],
      "stateMutability": "payable",
      "type": "function"
    },
    {
      "stateMutability": "payable",
      "type": "receive"
    }
  ],
  "bytecode": "0x60a06040523480156200001157600080fd5b506040516200205c3803806200205c833981016040819052620000349162000183565b806200003f620000f8565b6040518060400160405280601081526020016f2932bb34b2bba1b7b63632b1ba34b7b760811b8152506040518060400160405280600681526020016552455649455760d01b81525081600090816200009891906200025c565b506001620000a782826200025c565b5050506001600160a01b038116620000d957604051631e4fbdf760e01b81526000600482015260240160405180910390fd5b620000e48162000109565b506001600160a01b03166080525062000328565b6000620001046200015b565b905090565b600680546001600160a01b038381166001600160a01b0319831681179093556040519116919082907f8be0079c531659141344cd1fd0a4f28419497f9722a3daafe3b4186f6b6457e090600090a35050565b6080516000906001600160a01b031633036200017e575060131936013560601c90565b503390565b6000602082840312156200019657600080fd5b81516001600160a01b0381168114620001ae57600080fd5b9392505050565b634e487b7160e01b600052604160045260246000fd5b600181811c90821680620001e057607f821691505b6020821081036200020157634e487b7160e01b600052602260045260246000fd5b50919050565b601f82111562000257576000816000526020600020601f850160051c81016020861015620002325750805b601f850160051c820191505b8181101562000253578281556001016200023e565b5050505b505050565b81516001600160401b03811115620002785762000278620001b5565b6200029081620002898454620001cb565b8462000207565b602080601f831160018114620002c85760008415620002af5750858301515b600019600386901b1c1916600185901b17855562000253565b600085815260208120601f198616915b82811015620002f957888601518255948401946001909101908401620002d8565b5085821015620003185787850151600019600388901b60f8161c191681555b5050505050600190811b01905550565b608051611d116200034b600039600081816102f2015261138d0152611d116000f3fe60806040526004361061016a5760003560e01c80636f74eb24116100d1578063b88d4fde1161008a578063d5b24d8111610064578063d5b24d8114610459578063e16b4a9b1461046c578063e985e9c514610480578063f2fde38b146104a057600080fd5b8063b88d4fde14610419578063c87b56dd14610439578063cbedbf5a1461022557600080fd5b80636f74eb241461036f57806370a0823114610391578063715018a6146103b15780638da5cb5b146103c657806395d89b41146103e4578063a22cb465146103f957600080fd5b806340d097c31161012357806340d097c31461026757806342842e0e1461029557806342966c68146102b5578063572b6c05146102d557806360eae497146103225780636352211e1461034f57600080fd5b806301ffc9a71461017657806306fdde03146101ab578063081812fc146101cd578063095ea7b3146102055780630b9439001461022757806323b872dd1461024757600080fd5b3661017157005b600080fd5b34801561018257600080fd5b50610196610191366004611707565b6104c0565b60405190151581526020015b60405180910390f35b3480156101b757600080fd5b506101c0610512565b6040516101a29190611774565b3480156101d957600080fd5b506101ed6101e8366004611787565b6105a4565b6040516001600160a01b0390911681526020016101a2565b34801561021157600080fd5b506102256102203660046117bc565b6105cd565b005b34801561023357600080fd5b506102256102423660046117bc565b6105e3565b34801561025357600080fd5b506102256102623660046117e6565b61061c565b34801561027357600080fd5b50610287610282366004611822565b6106b3565b6040519081526020016101a2565b3480156102a157600080fd5b506102256102b03660046117e6565b6106d7565b3480156102c157600080fd5b506102256102d0366004611787565b6106f7565b3480156102e157600080fd5b506101966102f0366004611822565b7f00000000000000000000000000000000000000000000000000000000000000006001600160a01b0390811691161490565b34801561032e57600080fd5b5061034261033d366004611822565b610705565b6040516101a29190611884565b34801561035b57600080fd5b506101ed61036a366004611787565b610876565b34801561037b57600080fd5b50610384610881565b6040516101a29190611897565b34801561039d57600080fd5b506102876103ac366004611822565b610a1b565b3480156103bd57600080fd5b50610225610a63565b3480156103d257600080fd5b506006546001600160a01b03166101ed565b3480156103f057600080fd5b506101c0610a77565b34801561040557600080fd5b506102256104143660046118fb565b610a86565b34801561042557600080fd5b506102256104343660046119c3565b610a98565b34801561044557600080fd5b506101c0610454366004611787565b610aaf565b610225610467366004611a3f565b610b24565b34801561047857600080fd5b506005610287565b34801561048c57600080fd5b5061019661049b366004611a98565b610ea3565b3480156104ac57600080fd5b506102256104bb366004611822565b610ed1565b60006001600160e01b031982166380ac58cd60e01b14806104f157506001600160e01b03198216635b5e139f60e01b145b8061050c57506301ffc9a760e01b6001600160e01b03198316145b92915050565b60606000805461052190611acb565b80601f016020809104026020016040519081016040528092919081815260200182805461054d90611acb565b801561059a5780601f1061056f5761010080835404028352916020019161059a565b820191906000526020600020905b81548152906001019060200180831161057d57829003601f168201915b5050505050905090565b60006105af82610f0f565b506000828152600460205260409020546001600160a01b031661050c565b6105df82826105da610f48565b610f57565b5050565b6105eb610f64565b6001600160a01b039091166000908152600860209081526040808320805460ff191660011790556009909152902055565b6001600160a01b03821661064b57604051633250574960e11b8152600060048201526024015b60405180910390fd5b600061065f838361065a610f48565b610fc2565b9050836001600160a01b0316816001600160a01b0316146106ad576040516364283d7b60e01b81526001600160a01b0380861660048301526024820184905282166044820152606401610642565b50505050565b60078054600091829190826106c783611b05565b91905055905061050c83826110bb565b6106f283838360405180602001604052806000815250610a98565b505050565b6105df60008261065a610f48565b610739604051806080016040528060008152602001606081526020016000815260200160006001600160a01b031681525090565b6001600160a01b0382166000908152600b60205260408120549003610789575050604080516080810182526000808252825160208181018552828252830152918101829052606081019190915290565b6001600160a01b0382166000908152600b60209081526040808320548352600a8252918290208251608081019093528054835260018101805491928401916107d090611acb565b80601f01602080910402602001604051908101604052809291908181526020018280546107fc90611acb565b80156108495780601f1061081e57610100808354040283529160200191610849565b820191906000526020600020905b81548152906001019060200180831161082c57829003601f168201915b5050509183525050600282015460208201526003909101546001600160a01b031660409091015292915050565b600061050c82610f0f565b60075460609060008167ffffffffffffffff8111156108a2576108a2611937565b60405190808252806020026020018201604052801561090757816020015b6108f4604051806080016040528060008152602001606081526020016000815260200160006001600160a01b031681525090565b8152602001906001900390816108c05790505b50905060005b82811015610a1457600a60008281526020019081526020016000206040518060800160405290816000820154815260200160018201805461094d90611acb565b80601f016020809104026020016040519081016040528092919081815260200182805461097990611acb565b80156109c65780601f1061099b576101008083540402835291602001916109c6565b820191906000526020600020905b8154815290600101906020018083116109a957829003601f168201915b5050509183525050600282015460208201526003909101546001600160a01b03166040909101528251839083908110610a0157610a01611b2c565b602090810291909101015260010161090d565b5092915050565b60006001600160a01b038216610a47576040516322718ad960e21b815260006004820152602401610642565b506001600160a01b031660009081526003602052604090205490565b610a6b610f64565b610a7560006110d5565b565b60606001805461052190611acb565b6105df610a91610f48565b8383611127565b610aa384848461061c565b6106ad848484846111c6565b6060610aba82610f0f565b506000610ad260408051602081019091526000815290565b90506000815111610af25760405180602001604052806000815250610b1d565b80610afc846112f6565b604051602001610b0d929190611b42565b6040516020818303038152906040525b9392505050565b60086000610b30610f48565b6001600160a01b0316815260208101919091526040016000205460ff16610ba75760405162461bcd60e51b815260206004820152602560248201527f596f7520617265206e6f7420696e766974656420746f20777269746520612072604482015264657669657760d81b6064820152608401610642565b600b6000610bb3610f48565b6001600160a01b0316815260208101919091526040016000205415610c245760405162461bcd60e51b815260206004820152602160248201527f596f75206861766520616c7265616479207772697474656e20612072657669656044820152607760f81b6064820152608401610642565b60018110158015610c365750600a8111155b610c825760405162461bcd60e51b815260206004820152601f60248201527f526174696e67206d757374206265206265747765656e203120616e64203130006044820152606401610642565b6000610c8f610282610f48565b90506040518060800160405280828152602001848152602001838152602001610cb6610f48565b6001600160a01b031690526000828152600a6020908152604090912082518155908201516001820190610ce99082611bc1565b5060408201516002820155606090910151600390910180546001600160a01b0319166001600160a01b0390921691909117905580600b6000610d29610f48565b6001600160a01b03166001600160a01b031681526020019081526020016000208190555060096000610d59610f48565b6001600160a01b03166001600160a01b0316815260200190815260200160002054471015610dc95760405162461bcd60e51b815260206004820181905260248201527f436f6e74726163742062616c616e636520697320696e73756666696369656e746044820152606401610642565b610dd1610f48565b6001600160a01b03166108fc60096000610de9610f48565b6001600160a01b03166001600160a01b03168152602001908152602001600020549081150290604051600060405180830381858888f19350505050158015610e35573d6000803e3d6000fd5b50600060096000610e44610f48565b6001600160a01b03166001600160a01b0316815260200190815260200160002081905550600060086000610e76610f48565b6001600160a01b031681526020810191909152604001600020805460ff1916911515919091179055505050565b6001600160a01b03918216600090815260056020908152604080832093909416825291909152205460ff1690565b610ed9610f64565b6001600160a01b038116610f0357604051631e4fbdf760e01b815260006004820152602401610642565b610f0c816110d5565b50565b6000818152600260205260408120546001600160a01b03168061050c57604051637e27328960e01b815260048101849052602401610642565b6000610f52611389565b905090565b6106f283838360016113cd565b610f6c610f48565b6001600160a01b0316610f876006546001600160a01b031690565b6001600160a01b031614610a7557610f9d610f48565b60405163118cdaa760e01b81526001600160a01b039091166004820152602401610642565b6000828152600260205260408120546001600160a01b0390811690831615610fef57610fef8184866114d3565b6001600160a01b0381161561102d5761100c6000856000806113cd565b6001600160a01b038116600090815260036020526040902080546000190190555b6001600160a01b0385161561105c576001600160a01b0385166000908152600360205260409020805460010190555b60008481526002602052604080822080546001600160a01b0319166001600160a01b0389811691821790925591518793918516917fddf252ad1be2c89b69c2b068fc378daa952ba7f163c4a11628f55a4df523b3ef91a4949350505050565b6105df828260405180602001604052806000815250611537565b600680546001600160a01b038381166001600160a01b0319831681179093556040519116919082907f8be0079c531659141344cd1fd0a4f28419497f9722a3daafe3b4186f6b6457e090600090a35050565b6001600160a01b03821661115957604051630b61174360e31b81526001600160a01b0383166004820152602401610642565b6001600160a01b03838116600081815260056020908152604080832094871680845294825291829020805460ff191686151590811790915591519182527f17307eab39ab6107e8899845ad3d59bd9653f200f220920489ca2b5937696c31910160405180910390a3505050565b6001600160a01b0383163b156106ad57826001600160a01b031663150b7a026111ed610f48565b8685856040518563ffffffff1660e01b815260040161120f9493929190611c81565b6020604051808303816000875af192505050801561124a575060408051601f3d908101601f1916820190925261124791810190611cbe565b60015b6112b3573d808015611278576040519150601f19603f3d011682016040523d82523d6000602084013e61127d565b606091505b5080516000036112ab57604051633250574960e11b81526001600160a01b0385166004820152602401610642565b805181602001fd5b6001600160e01b03198116630a85bd0160e11b146112ef57604051633250574960e11b81526001600160a01b0385166004820152602401610642565b5050505050565b606060006113038361154e565b600101905060008167ffffffffffffffff81111561132357611323611937565b6040519080825280601f01601f19166020018201604052801561134d576020820181803683370190505b5090508181016020015b600019016f181899199a1a9b1b9c1cb0b131b232b360811b600a86061a8153600a850494508461135757509392505050565b60007f00000000000000000000000000000000000000000000000000000000000000006001600160a01b031633036113c8575060131936013560601c90565b503390565b80806113e157506001600160a01b03821615155b156114a35760006113f184610f0f565b90506001600160a01b0383161580159061141d5750826001600160a01b0316816001600160a01b031614155b8015611430575061142e8184610ea3565b155b156114595760405163a9fbf51f60e01b81526001600160a01b0384166004820152602401610642565b81156114a15783856001600160a01b0316826001600160a01b03167f8c5be1e5ebec7d5bd14f71427d1e84f3dd0314c0f7b2291e5b200ac8c7c3b92560405160405180910390a45b505b5050600090815260046020526040902080546001600160a01b0319166001600160a01b0392909216919091179055565b6114de838383611626565b6106f2576001600160a01b03831661150c57604051637e27328960e01b815260048101829052602401610642565b60405163177e802f60e01b81526001600160a01b038316600482015260248101829052604401610642565b611541838361168c565b6106f260008484846111c6565b60008072184f03e93ff9f4daa797ed6e38ed64bf6a1f0160401b831061158d5772184f03e93ff9f4daa797ed6e38ed64bf6a1f0160401b830492506040015b6d04ee2d6d415b85acef810000000083106115b9576d04ee2d6d415b85acef8100000000830492506020015b662386f26fc1000083106115d757662386f26fc10000830492506010015b6305f5e10083106115ef576305f5e100830492506008015b612710831061160357612710830492506004015b60648310611615576064830492506002015b600a831061050c5760010192915050565b60006001600160a01b038316158015906116845750826001600160a01b0316846001600160a01b0316148061166057506116608484610ea3565b8061168457506000828152600460205260409020546001600160a01b038481169116145b949350505050565b6001600160a01b0382166116b657604051633250574960e11b815260006004820152602401610642565b60006116c483836000610fc2565b90506001600160a01b038116156106f2576040516339e3563760e11b815260006004820152602401610642565b6001600160e01b031981168114610f0c57600080fd5b60006020828403121561171957600080fd5b8135610b1d816116f1565b60005b8381101561173f578181015183820152602001611727565b50506000910152565b60008151808452611760816020860160208601611724565b601f01601f19169290920160200192915050565b602081526000610b1d6020830184611748565b60006020828403121561179957600080fd5b5035919050565b80356001600160a01b03811681146117b757600080fd5b919050565b600080604083850312156117cf57600080fd5b6117d8836117a0565b946020939093013593505050565b6000806000606084860312156117fb57600080fd5b611804846117a0565b9250611812602085016117a0565b9150604084013590509250925092565b60006020828403121561183457600080fd5b610b1d826117a0565b80518252600060208201516080602085015261185c6080850182611748565b604084810151908601526060938401516001600160a01b031693909401929092525090919050565b602081526000610b1d602083018461183d565b600060208083016020845280855180835260408601915060408160051b87010192506020870160005b828110156118ee57603f198886030184526118dc85835161183d565b945092850192908501906001016118c0565b5092979650505050505050565b6000806040838503121561190e57600080fd5b611917836117a0565b91506020830135801515811461192c57600080fd5b809150509250929050565b634e487b7160e01b600052604160045260246000fd5b600067ffffffffffffffff8084111561196857611968611937565b604051601f8501601f19908116603f0116810190828211818310171561199057611990611937565b816040528093508581528686860111156119a957600080fd5b858560208301376000602087830101525050509392505050565b600080600080608085870312156119d957600080fd5b6119e2856117a0565b93506119f0602086016117a0565b925060408501359150606085013567ffffffffffffffff811115611a1357600080fd5b8501601f81018713611a2457600080fd5b611a338782356020840161194d565b91505092959194509250565b60008060408385031215611a5257600080fd5b823567ffffffffffffffff811115611a6957600080fd5b8301601f81018513611a7a57600080fd5b611a898582356020840161194d565b95602094909401359450505050565b60008060408385031215611aab57600080fd5b611ab4836117a0565b9150611ac2602084016117a0565b90509250929050565b600181811c90821680611adf57607f821691505b602082108103611aff57634e487b7160e01b600052602260045260246000fd5b50919050565b600060018201611b2557634e487b7160e01b600052601160045260246000fd5b5060010190565b634e487b7160e01b600052603260045260246000fd5b60008351611b54818460208801611724565b835190830190611b68818360208801611724565b01949350505050565b601f8211156106f2576000816000526020600020601f850160051c81016020861015611b9a5750805b601f850160051c820191505b81811015611bb957828155600101611ba6565b505050505050565b815167ffffffffffffffff811115611bdb57611bdb611937565b611bef81611be98454611acb565b84611b71565b602080601f831160018114611c245760008415611c0c5750858301515b600019600386901b1c1916600185901b178555611bb9565b600085815260208120601f198616915b82811015611c5357888601518255948401946001909101908401611c34565b5085821015611c715787850151600019600388901b60f8161c191681555b5050505050600190811b01905550565b6001600160a01b0385811682528416602082015260408101839052608060608201819052600090611cb490830184611748565b9695505050505050565b600060208284031215611cd057600080fd5b8151610b1d816116f156fea264697066735822122061dffb0b12cb41a58ec6a7912a1b5837065e8e7f378354787963dd4e2f3a16a764736f6c63430008180033",
  "linkReferences": {},
  "deployedLinkReferences": {}
}