{
  "_format": "hh-sol-artifact-1",
  "contractName": "MyApp",
  "sourceName": "contracts/Contract.sol",
  "abi": [
    {
      "inputs": [],
      "stateMutability": "nonpayable",
      "type": "constructor"
    },
    {
      "inputs": [
        {
          "internalType": "address",
          "name": "sender",
          "type": "address"
        },
        {
          "internalType": "uint256",
          "name": "tokenId",
          "type": "uint256"
        },
        {
          "internalType": "address",
          "name": "owner",
          "type": "address"
        }
      ],
      "name": "ERC721IncorrectOwner",
      "type": "error"
    },
    {
      "inputs": [
        {
          "internalType": "address",
          "name": "operator",
          "type": "address"
        },
        {
          "internalType": "uint256",
          "name": "tokenId",
          "type": "uint256"
        }
      ],
      "name": "ERC721InsufficientApproval",
      "type": "error"
    },
    {
      "inputs": [
        {
          "internalType": "address",
          "name": "approver",
          "type": "address"
        }
      ],
      "name": "ERC721InvalidApprover",
      "type": "error"
    },
    {
      "inputs": [
        {
          "internalType": "address",
          "name": "operator",
          "type": "address"
        }
      ],
      "name": "ERC721InvalidOperator",
      "type": "error"
    },
    {
      "inputs": [
        {
          "internalType": "address",
          "name": "owner",
          "type": "address"
        }
      ],
      "name": "ERC721InvalidOwner",
      "type": "error"
    },
    {
      "inputs": [
        {
          "internalType": "address",
          "name": "receiver",
          "type": "address"
        }
      ],
      "name": "ERC721InvalidReceiver",
      "type": "error"
    },
    {
      "inputs": [
        {
          "internalType": "address",
          "name": "sender",
          "type": "address"
        }
      ],
      "name": "ERC721InvalidSender",
      "type": "error"
    },
    {
      "inputs": [
        {
          "internalType": "uint256",
          "name": "tokenId",
          "type": "uint256"
        }
      ],
      "name": "ERC721NonexistentToken",
      "type": "error"
    },
    {
      "anonymous": false,
      "inputs": [
        {
          "indexed": true,
          "internalType": "address",
          "name": "owner",
          "type": "address"
        },
        {
          "indexed": true,
          "internalType": "address",
          "name": "approved",
          "type": "address"
        },
        {
          "indexed": true,
          "internalType": "uint256",
          "name": "tokenId",
          "type": "uint256"
        }
      ],
      "name": "Approval",
      "type": "event"
    },
    {
      "anonymous": false,
      "inputs": [
        {
          "indexed": true,
          "internalType": "address",
          "name": "owner",
          "type": "address"
        },
        {
          "indexed": true,
          "internalType": "address",
          "name": "operator",
          "type": "address"
        },
        {
          "indexed": false,
          "internalType": "bool",
          "name": "approved",
          "type": "bool"
        }
      ],
      "name": "ApprovalForAll",
      "type": "event"
    },
    {
      "anonymous": false,
      "inputs": [
        {
          "indexed": false,
          "internalType": "uint256",
          "name": "_fromTokenId",
          "type": "uint256"
        },
        {
          "indexed": false,
          "internalType": "uint256",
          "name": "_toTokenId",
          "type": "uint256"
        }
      ],
      "name": "BatchMetadataUpdate",
      "type": "event"
    },
    {
      "anonymous": false,
      "inputs": [
        {
          "indexed": false,
          "internalType": "uint256",
          "name": "_tokenId",
          "type": "uint256"
        }
      ],
      "name": "MetadataUpdate",
      "type": "event"
    },
    {
      "anonymous": false,
      "inputs": [
        {
          "indexed": true,
          "internalType": "address",
          "name": "from",
          "type": "address"
        },
        {
          "indexed": true,
          "internalType": "address",
          "name": "to",
          "type": "address"
        },
        {
          "indexed": true,
          "internalType": "uint256",
          "name": "tokenId",
          "type": "uint256"
        }
      ],
      "name": "Transfer",
      "type": "event"
    },
    {
      "inputs": [
        {
          "internalType": "address",
          "name": "to",
          "type": "address"
        },
        {
          "internalType": "uint256",
          "name": "tokenId",
          "type": "uint256"
        }
      ],
      "name": "approve",
      "outputs": [],
      "stateMutability": "nonpayable",
      "type": "function"
    },
    {
      "inputs": [
        {
          "internalType": "address",
          "name": "owner",
          "type": "address"
        }
      ],
      "name": "balanceOf",
      "outputs": [
        {
          "internalType": "uint256",
          "name": "",
          "type": "uint256"
        }
      ],
      "stateMutability": "view",
      "type": "function"
    },
    {
      "inputs": [
        {
          "internalType": "uint256",
          "name": "tokenId",
          "type": "uint256"
        }
      ],
      "name": "burn",
      "outputs": [],
      "stateMutability": "nonpayable",
      "type": "function"
    },
    {
      "inputs": [],
      "name": "coreFeature",
      "outputs": [
        {
          "internalType": "string",
          "name": "hw",
          "type": "string"
        }
      ],
      "stateMutability": "nonpayable",
      "type": "function"
    },
    {
      "inputs": [
        {
          "internalType": "uint256",
          "name": "tokenId",
          "type": "uint256"
        }
      ],
      "name": "getApproved",
      "outputs": [
        {
          "internalType": "address",
          "name": "",
          "type": "address"
        }
      ],
      "stateMutability": "view",
      "type": "function"
    },
    {
      "inputs": [],
      "name": "getAvgRating",
      "outputs": [
        {
          "internalType": "uint256",
          "name": "",
          "type": "uint256"
        }
      ],
      "stateMutability": "view",
      "type": "function"
    },
    {
      "inputs": [
        {
          "internalType": "address",
          "name": "userAddress",
          "type": "address"
        }
      ],
      "name": "getTokenId",
      "outputs": [
        {
          "internalType": "int256",
          "name": "",
          "type": "int256"
        }
      ],
      "stateMutability": "view",
      "type": "function"
    },
    {
      "inputs": [
        {
          "internalType": "address",
          "name": "owner",
          "type": "address"
        },
        {
          "internalType": "address",
          "name": "operator",
          "type": "address"
        }
      ],
      "name": "isApprovedForAll",
      "outputs": [
        {
          "internalType": "bool",
          "name": "",
          "type": "bool"
        }
      ],
      "stateMutability": "view",
      "type": "function"
    },
    {
      "inputs": [
        {
          "internalType": "address",
          "name": "forwarder",
          "type": "address"
        }
      ],
      "name": "isTrustedForwarder",
      "outputs": [
        {
          "internalType": "bool",
          "name": "",
          "type": "bool"
        }
      ],
      "stateMutability": "view",
      "type": "function"
    },
    {
      "inputs": [],
      "name": "name",
      "outputs": [
        {
          "internalType": "string",
          "name": "",
          "type": "string"
        }
      ],
      "stateMutability": "view",
      "type": "function"
    },
    {
      "inputs": [
        {
          "internalType": "uint256",
          "name": "tokenId",
          "type": "uint256"
        }
      ],
      "name": "ownerOf",
      "outputs": [
        {
          "internalType": "address",
          "name": "",
          "type": "address"
        }
      ],
      "stateMutability": "view",
      "type": "function"
    },
    {
      "inputs": [
        {
          "internalType": "address",
          "name": "from",
          "type": "address"
        },
        {
          "internalType": "address",
          "name": "to",
          "type": "address"
        },
        {
          "internalType": "uint256",
          "name": "tokenId",
          "type": "uint256"
        }
      ],
      "name": "safeTransferFrom",
      "outputs": [],
      "stateMutability": "nonpayable",
      "type": "function"
    },
    {
      "inputs": [
        {
          "internalType": "address",
          "name": "from",
          "type": "address"
        },
        {
          "internalType": "address",
          "name": "to",
          "type": "address"
        },
        {
          "internalType": "uint256",
          "name": "tokenId",
          "type": "uint256"
        },
        {
          "internalType": "bytes",
          "name": "data",
          "type": "bytes"
        }
      ],
      "name": "safeTransferFrom",
      "outputs": [],
      "stateMutability": "nonpayable",
      "type": "function"
    },
    {
      "inputs": [],
      "name": "senderOwnedToken",
      "outputs": [
        {
          "internalType": "int256",
          "name": "",
          "type": "int256"
        }
      ],
      "stateMutability": "view",
      "type": "function"
    },
    {
      "inputs": [
        {
          "internalType": "address",
          "name": "operator",
          "type": "address"
        },
        {
          "internalType": "bool",
          "name": "approved",
          "type": "bool"
        }
      ],
      "name": "setApprovalForAll",
      "outputs": [],
      "stateMutability": "nonpayable",
      "type": "function"
    },
    {
      "inputs": [
        {
          "internalType": "bytes4",
          "name": "interfaceId",
          "type": "bytes4"
        }
      ],
      "name": "supportsInterface",
      "outputs": [
        {
          "internalType": "bool",
          "name": "",
          "type": "bool"
        }
      ],
      "stateMutability": "view",
      "type": "function"
    },
    {
      "inputs": [],
      "name": "symbol",
      "outputs": [
        {
          "internalType": "string",
          "name": "",
          "type": "string"
        }
      ],
      "stateMutability": "view",
      "type": "function"
    },
    {
      "inputs": [
        {
          "internalType": "uint256",
          "name": "tokenId",
          "type": "uint256"
        }
      ],
      "name": "tokenURI",
      "outputs": [
        {
          "internalType": "string",
          "name": "",
          "type": "string"
        }
      ],
      "stateMutability": "view",
      "type": "function"
    },
    {
      "inputs": [
        {
          "internalType": "address",
          "name": "from",
          "type": "address"
        },
        {
          "internalType": "address",
          "name": "to",
          "type": "address"
        },
        {
          "internalType": "uint256",
          "name": "tokenId",
          "type": "uint256"
        }
      ],
      "name": "transferFrom",
      "outputs": [],
      "stateMutability": "nonpayable",
      "type": "function"
    },
    {
      "inputs": [
        {
          "internalType": "uint256",
          "name": "rating",
          "type": "uint256"
        },
        {
          "internalType": "string",
          "name": "uri",
          "type": "string"
        }
      ],
      "name": "writeReview",
      "outputs": [],
      "stateMutability": "payable",
      "type": "function"
    },
    {
      "stateMutability": "payable",
      "type": "receive"
    }
  ],
  "bytecode": "0x60a06040523480156200001157600080fd5b5073d8253782c45a12053594b9deb72d8e8ab2fca54c6040518060400160405280601081526020016f2932bb34b2bba1b7b63632b1ba34b7b760811b8152506040518060400160405280600681526020016552455649455760d01b8152506611c37937e0800083838381600090816200008b91906200015d565b5060016200009a82826200015d565b5050506001600160a01b03166080526008555062000229915050565b634e487b7160e01b600052604160045260246000fd5b600181811c90821680620000e157607f821691505b6020821081036200010257634e487b7160e01b600052602260045260246000fd5b50919050565b601f82111562000158576000816000526020600020601f850160051c81016020861015620001335750805b601f850160051c820191505b8181101562000154578281556001016200013f565b5050505b505050565b81516001600160401b03811115620001795762000179620000b6565b62000191816200018a8454620000cc565b8462000108565b602080601f831160018114620001c95760008415620001b05750858301515b600019600386901b1c1916600185901b17855562000154565b600085815260208120601f198616915b82811015620001fa57888601518255948401946001909101908401620001d9565b5085821015620002195787850151600019600388901b60f8161c191681555b5050505050600190811b01905550565b608051611aae6200024c6000396000818161025d01526110070152611aae6000f3fe6080604052600436106101235760003560e01c806370a08231116100a0578063b88d4fde11610064578063b88d4fde1461034d578063c1fd55a51461036d578063c87b56dd14610382578063e985e9c5146103a2578063f1537686146103c257600080fd5b806370a08231146102c05780637f96934a146102ee57806395d89b4114610303578063a22cb46514610318578063b3b86d1c1461033857600080fd5b806342842e0e116100e757806342842e0e1461020057806342966c6814610220578063572b6c05146102405780636352211e1461028d578063701003d5146102ad57600080fd5b806301ffc9a71461012f57806306fdde0314610164578063081812fc14610186578063095ea7b3146101be57806323b872dd146101e057600080fd5b3661012a57005b600080fd5b34801561013b57600080fd5b5061014f61014a3660046114ef565b6103e2565b60405190151581526020015b60405180910390f35b34801561017057600080fd5b506101796103f3565b60405161015b919061155c565b34801561019257600080fd5b506101a66101a136600461156f565b610485565b6040516001600160a01b03909116815260200161015b565b3480156101ca57600080fd5b506101de6101d936600461159d565b6104ae565b005b3480156101ec57600080fd5b506101de6101fb3660046115c9565b6104c4565b34801561020c57600080fd5b506101de61021b3660046115c9565b61055b565b34801561022c57600080fd5b506101de61023b36600461156f565b61057b565b34801561024c57600080fd5b5061014f61025b36600461160a565b7f00000000000000000000000000000000000000000000000000000000000000006001600160a01b0390811691161490565b34801561029957600080fd5b506101a66102a836600461156f565b6105cc565b6101de6102bb3660046116b3565b6105d7565b3480156102cc57600080fd5b506102e06102db36600461160a565b610851565b60405190815260200161015b565b3480156102fa57600080fd5b50610179610899565b34801561030f57600080fd5b506101796108f3565b34801561032457600080fd5b506101de61033336600461170e565b610902565b34801561034457600080fd5b506102e0610914565b34801561035957600080fd5b506101de61036836600461174c565b610979565b34801561037957600080fd5b506102e0610990565b34801561038e57600080fd5b5061017961039d36600461156f565b61099d565b3480156103ae57600080fd5b5061014f6103bd3660046117cc565b6109a8565b3480156103ce57600080fd5b506102e06103dd36600461160a565b6109d6565b60006103ed82610a9a565b92915050565b606060008054610402906117fa565b80601f016020809104026020016040519081016040528092919081815260200182805461042e906117fa565b801561047b5780601f106104505761010080835404028352916020019161047b565b820191906000526020600020905b81548152906001019060200180831161045e57829003601f168201915b5050505050905090565b600061049082610abf565b506000828152600460205260409020546001600160a01b03166103ed565b6104c082826104bb610af8565b610b02565b5050565b6001600160a01b0382166104f357604051633250574960e11b8152600060048201526024015b60405180910390fd5b60006105078383610502610af8565b610b0f565b9050836001600160a01b0316816001600160a01b031614610555576040516364283d7b60e01b81526001600160a01b03808616600483015260248201849052821660448201526064016104ea565b50505050565b61057683838360405180602001604052806000815250610979565b505050565b6000818152600d6020526040812060010154600a8054919290916105a090849061184a565b925050819055506001600b60008282546105ba919061184a565b909155506105c9905081610c08565b50565b60006103ed82610abf565b6105df610990565b600019146106395760405162461bcd60e51b815260206004820152602160248201527f596f75206861766520616c7265616479207772697474656e20612072657669656044820152607760f81b60648201526084016104ea565b600c6000610645610af8565b6001600160a01b0316815260208101919091526040016000205460ff166106e65760405162461bcd60e51b815260206004820152604960248201527f596f75206172656e277420656c696769626c6520666f722077726974696e672060448201527f61207265766965772c20796f75206d7573742075736520736f6d652066756e6360648201526874696f6e616c69747960b81b608482015260a4016104ea565b600182101580156106f85750600a8211155b6107445760405162461bcd60e51b815260206004820152601f60248201527f526174696e67206d757374206265206265747765656e203120616e642031300060448201526064016104ea565b6000610757610751610af8565b83610c16565b90506040518060600160405280828152602001848152602001610778610af8565b6001600160a01b039081169091526000838152600d602090815260409182902084518155908401516001820155920151600290920180546001600160a01b031916929091169190911790556107d66107ce610af8565b600854610c4b565b6000600c60006107e4610af8565b6001600160a01b03166001600160a01b0316815260200190815260200160002060006101000a81548160ff02191690831515021790555082600a600082825461082d919061185d565b925050819055506001600b6000828254610847919061185d565b9091555050505050565b60006001600160a01b03821661087d576040516322718ad960e21b8152600060048201526024016104ea565b506001600160a01b031660009081526003602052604090205490565b60606001600c60006108a9610af8565b6001600160a01b031681526020808201929092526040908101600020805460ff1916931515939093179092558151808301909252600582526468656c6c6f60d81b90820152919050565b606060018054610402906117fa565b6104c061090d610af8565b8383610cd3565b600080600b54116109585760405162461bcd60e51b815260206004820152600e60248201526d139bc81c995d9a595ddcc81e595d60921b60448201526064016104ea565b600b54600a5461096a906103e8611870565b6109749190611887565b905090565b6109848484846104c4565b61055584848484610d72565b60006109746103dd610af8565b60606103ed82610ea2565b6001600160a01b03918216600090815260056020908152604080832093909416825291909152205460ff1690565b6000806109e283610851565b90508015610a905760005b6007548111610a8e576040516331a9108f60e11b8152600481018290523090636352211e90602401602060405180830381865afa925050508015610a4e575060408051601f3d908101601f19168201909252610a4b918101906118a9565b60015b15610a7c5750836001600160a01b0316610a67826105cc565b6001600160a01b031603610a7c579392505050565b80610a86816118c6565b9150506109ed565b505b5060001992915050565b60006001600160e01b03198216632483248360e11b14806103ed57506103ed82610fb3565b6000818152600260205260408120546001600160a01b0316806103ed57604051637e27328960e01b8152600481018490526024016104ea565b6000610974611003565b6105768383836001611047565b6000828152600260205260408120546001600160a01b0390811690831615610b3c57610b3c81848661114d565b6001600160a01b03811615610b7a57610b59600085600080611047565b6001600160a01b038116600090815260036020526040902080546000190190555b6001600160a01b03851615610ba9576001600160a01b0385166000908152600360205260409020805460010190555b60008481526002602052604080822080546001600160a01b0319166001600160a01b0389811691821790925591518793918516917fddf252ad1be2c89b69c2b068fc378daa952ba7f163c4a11628f55a4df523b3ef91a4949350505050565b6104c0600082610502610af8565b6007805460009182919082610c2a836118c6565b919050559050610c3a84826111b1565b610c4481846111cb565b9392505050565b600854471015610c9d5760405162461bcd60e51b815260206004820181905260248201527f436f6e74726163742062616c616e636520697320696e73756666696369656e7460448201526064016104ea565b6040516001600160a01b0383169082156108fc029083906000818181858888f19350505050158015610576573d6000803e3d6000fd5b6001600160a01b038216610d0557604051630b61174360e31b81526001600160a01b03831660048201526024016104ea565b6001600160a01b03838116600081815260056020908152604080832094871680845294825291829020805460ff191686151590811790915591519182527f17307eab39ab6107e8899845ad3d59bd9653f200f220920489ca2b5937696c31910160405180910390a3505050565b6001600160a01b0383163b1561055557826001600160a01b031663150b7a02610d99610af8565b8685856040518563ffffffff1660e01b8152600401610dbb94939291906118df565b6020604051808303816000875af1925050508015610df6575060408051601f3d908101601f19168201909252610df39181019061191c565b60015b610e5f573d808015610e24576040519150601f19603f3d011682016040523d82523d6000602084013e610e29565b606091505b508051600003610e5757604051633250574960e11b81526001600160a01b03851660048201526024016104ea565b805181602001fd5b6001600160e01b03198116630a85bd0160e11b14610e9b57604051633250574960e11b81526001600160a01b03851660048201526024016104ea565b5050505050565b6060610ead82610abf565b5060008281526006602052604081208054610ec7906117fa565b80601f0160208091040260200160405190810160405280929190818152602001828054610ef3906117fa565b8015610f405780601f10610f1557610100808354040283529160200191610f40565b820191906000526020600020905b815481529060010190602001808311610f2357829003601f168201915b505050505090506000610f5e60408051602081019091526000815290565b90508051600003610f70575092915050565b815115610fa2578082604051602001610f8a929190611939565b60405160208183030381529060405292505050919050565b610fab8461121b565b949350505050565b60006001600160e01b031982166380ac58cd60e01b1480610fe457506001600160e01b03198216635b5e139f60e01b145b806103ed57506301ffc9a760e01b6001600160e01b03198316146103ed565b60007f00000000000000000000000000000000000000000000000000000000000000006001600160a01b03163303611042575060131936013560601c90565b503390565b808061105b57506001600160a01b03821615155b1561111d57600061106b84610abf565b90506001600160a01b038316158015906110975750826001600160a01b0316816001600160a01b031614155b80156110aa57506110a881846109a8565b155b156110d35760405163a9fbf51f60e01b81526001600160a01b03841660048201526024016104ea565b811561111b5783856001600160a01b0316826001600160a01b03167f8c5be1e5ebec7d5bd14f71427d1e84f3dd0314c0f7b2291e5b200ac8c7c3b92560405160405180910390a45b505b5050600090815260046020526040902080546001600160a01b0319166001600160a01b0392909216919091179055565b61115883838361128f565b610576576001600160a01b03831661118657604051637e27328960e01b8152600481018290526024016104ea565b60405163177e802f60e01b81526001600160a01b0383166004820152602481018290526044016104ea565b6104c08282604051806020016040528060008152506112f2565b60008281526006602052604090206111e382826119b8565b506040518281527ff8e1a15aba9398e019f0b49df1a4fde98ee17ae345cb5f6b5e2c27f5033e8ce79060200160405180910390a15050565b606061122682610abf565b50600061123e60408051602081019091526000815290565b9050600081511161125e5760405180602001604052806000815250610c44565b8061126884611309565b604051602001611279929190611939565b6040516020818303038152906040529392505050565b60006001600160a01b03831615801590610fab5750826001600160a01b0316846001600160a01b031614806112c957506112c984846109a8565b80610fab5750506000908152600460205260409020546001600160a01b03908116911614919050565b6112fc838361139c565b6105766000848484610d72565b6060600061131683611401565b600101905060008167ffffffffffffffff81111561133657611336611627565b6040519080825280601f01601f191660200182016040528015611360576020820181803683370190505b5090508181016020015b600019016f181899199a1a9b1b9c1cb0b131b232b360811b600a86061a8153600a850494508461136a57509392505050565b6001600160a01b0382166113c657604051633250574960e11b8152600060048201526024016104ea565b60006113d483836000610b0f565b90506001600160a01b03811615610576576040516339e3563760e11b8152600060048201526024016104ea565b60008072184f03e93ff9f4daa797ed6e38ed64bf6a1f0160401b83106114405772184f03e93ff9f4daa797ed6e38ed64bf6a1f0160401b830492506040015b6d04ee2d6d415b85acef8100000000831061146c576d04ee2d6d415b85acef8100000000830492506020015b662386f26fc10000831061148a57662386f26fc10000830492506010015b6305f5e10083106114a2576305f5e100830492506008015b61271083106114b657612710830492506004015b606483106114c8576064830492506002015b600a83106103ed5760010192915050565b6001600160e01b0319811681146105c957600080fd5b60006020828403121561150157600080fd5b8135610c44816114d9565b60005b8381101561152757818101518382015260200161150f565b50506000910152565b6000815180845261154881602086016020860161150c565b601f01601f19169290920160200192915050565b602081526000610c446020830184611530565b60006020828403121561158157600080fd5b5035919050565b6001600160a01b03811681146105c957600080fd5b600080604083850312156115b057600080fd5b82356115bb81611588565b946020939093013593505050565b6000806000606084860312156115de57600080fd5b83356115e981611588565b925060208401356115f981611588565b929592945050506040919091013590565b60006020828403121561161c57600080fd5b8135610c4481611588565b634e487b7160e01b600052604160045260246000fd5b600067ffffffffffffffff8084111561165857611658611627565b604051601f8501601f19908116603f0116810190828211818310171561168057611680611627565b8160405280935085815286868601111561169957600080fd5b858560208301376000602087830101525050509392505050565b600080604083850312156116c657600080fd5b82359150602083013567ffffffffffffffff8111156116e457600080fd5b8301601f810185136116f557600080fd5b6117048582356020840161163d565b9150509250929050565b6000806040838503121561172157600080fd5b823561172c81611588565b91506020830135801515811461174157600080fd5b809150509250929050565b6000806000806080858703121561176257600080fd5b843561176d81611588565b9350602085013561177d81611588565b925060408501359150606085013567ffffffffffffffff8111156117a057600080fd5b8501601f810187136117b157600080fd5b6117c08782356020840161163d565b91505092959194509250565b600080604083850312156117df57600080fd5b82356117ea81611588565b9150602083013561174181611588565b600181811c9082168061180e57607f821691505b60208210810361182e57634e487b7160e01b600052602260045260246000fd5b50919050565b634e487b7160e01b600052601160045260246000fd5b818103818111156103ed576103ed611834565b808201808211156103ed576103ed611834565b80820281158282048414176103ed576103ed611834565b6000826118a457634e487b7160e01b600052601260045260246000fd5b500490565b6000602082840312156118bb57600080fd5b8151610c4481611588565b6000600182016118d8576118d8611834565b5060010190565b6001600160a01b038581168252841660208201526040810183905260806060820181905260009061191290830184611530565b9695505050505050565b60006020828403121561192e57600080fd5b8151610c44816114d9565b6000835161194b81846020880161150c565b83519083019061195f81836020880161150c565b01949350505050565b601f821115610576576000816000526020600020601f850160051c810160208610156119915750805b601f850160051c820191505b818110156119b05782815560010161199d565b505050505050565b815167ffffffffffffffff8111156119d2576119d2611627565b6119e6816119e084546117fa565b84611968565b602080601f831160018114611a1b5760008415611a035750858301515b600019600386901b1c1916600185901b1785556119b0565b600085815260208120601f198616915b82811015611a4a57888601518255948401946001909101908401611a2b565b5085821015611a685787850151600019600388901b60f8161c191681555b5050505050600190811b0190555056fea2646970667358221220e9a471e7fddcc29562c4cb1d1d2cc8c5bf8eccc87db768ccdb6cfc9da31bd78b64736f6c63430008180033",
  "linkReferences": {},
  "deployedLinkReferences": {}
}