{
  "_format": "hh-sol-artifact-1",
  "contractName": "MyApp",
  "sourceName": "contracts/Contract.sol",
  "abi": [
    {
      "inputs": [],
      "stateMutability": "nonpayable",
      "type": "constructor"
    },
    {
      "inputs": [
        {
          "internalType": "address",
          "name": "sender",
          "type": "address"
        },
        {
          "internalType": "uint256",
          "name": "tokenId",
          "type": "uint256"
        },
        {
          "internalType": "address",
          "name": "owner",
          "type": "address"
        }
      ],
      "name": "ERC721IncorrectOwner",
      "type": "error"
    },
    {
      "inputs": [
        {
          "internalType": "address",
          "name": "operator",
          "type": "address"
        },
        {
          "internalType": "uint256",
          "name": "tokenId",
          "type": "uint256"
        }
      ],
      "name": "ERC721InsufficientApproval",
      "type": "error"
    },
    {
      "inputs": [
        {
          "internalType": "address",
          "name": "approver",
          "type": "address"
        }
      ],
      "name": "ERC721InvalidApprover",
      "type": "error"
    },
    {
      "inputs": [
        {
          "internalType": "address",
          "name": "operator",
          "type": "address"
        }
      ],
      "name": "ERC721InvalidOperator",
      "type": "error"
    },
    {
      "inputs": [
        {
          "internalType": "address",
          "name": "owner",
          "type": "address"
        }
      ],
      "name": "ERC721InvalidOwner",
      "type": "error"
    },
    {
      "inputs": [
        {
          "internalType": "address",
          "name": "receiver",
          "type": "address"
        }
      ],
      "name": "ERC721InvalidReceiver",
      "type": "error"
    },
    {
      "inputs": [
        {
          "internalType": "address",
          "name": "sender",
          "type": "address"
        }
      ],
      "name": "ERC721InvalidSender",
      "type": "error"
    },
    {
      "inputs": [
        {
          "internalType": "uint256",
          "name": "tokenId",
          "type": "uint256"
        }
      ],
      "name": "ERC721NonexistentToken",
      "type": "error"
    },
    {
      "anonymous": false,
      "inputs": [
        {
          "indexed": true,
          "internalType": "address",
          "name": "owner",
          "type": "address"
        },
        {
          "indexed": true,
          "internalType": "address",
          "name": "approved",
          "type": "address"
        },
        {
          "indexed": true,
          "internalType": "uint256",
          "name": "tokenId",
          "type": "uint256"
        }
      ],
      "name": "Approval",
      "type": "event"
    },
    {
      "anonymous": false,
      "inputs": [
        {
          "indexed": true,
          "internalType": "address",
          "name": "owner",
          "type": "address"
        },
        {
          "indexed": true,
          "internalType": "address",
          "name": "operator",
          "type": "address"
        },
        {
          "indexed": false,
          "internalType": "bool",
          "name": "approved",
          "type": "bool"
        }
      ],
      "name": "ApprovalForAll",
      "type": "event"
    },
    {
      "anonymous": false,
      "inputs": [
        {
          "indexed": false,
          "internalType": "uint256",
          "name": "_fromTokenId",
          "type": "uint256"
        },
        {
          "indexed": false,
          "internalType": "uint256",
          "name": "_toTokenId",
          "type": "uint256"
        }
      ],
      "name": "BatchMetadataUpdate",
      "type": "event"
    },
    {
      "anonymous": false,
      "inputs": [
        {
          "indexed": false,
          "internalType": "uint256",
          "name": "_tokenId",
          "type": "uint256"
        }
      ],
      "name": "MetadataUpdate",
      "type": "event"
    },
    {
      "anonymous": false,
      "inputs": [
        {
          "indexed": true,
          "internalType": "address",
          "name": "from",
          "type": "address"
        },
        {
          "indexed": true,
          "internalType": "address",
          "name": "to",
          "type": "address"
        },
        {
          "indexed": true,
          "internalType": "uint256",
          "name": "tokenId",
          "type": "uint256"
        }
      ],
      "name": "Transfer",
      "type": "event"
    },
    {
      "inputs": [
        {
          "internalType": "address",
          "name": "to",
          "type": "address"
        },
        {
          "internalType": "uint256",
          "name": "tokenId",
          "type": "uint256"
        }
      ],
      "name": "approve",
      "outputs": [],
      "stateMutability": "nonpayable",
      "type": "function"
    },
    {
      "inputs": [
        {
          "internalType": "address",
          "name": "owner",
          "type": "address"
        }
      ],
      "name": "balanceOf",
      "outputs": [
        {
          "internalType": "uint256",
          "name": "",
          "type": "uint256"
        }
      ],
      "stateMutability": "view",
      "type": "function"
    },
    {
      "inputs": [
        {
          "internalType": "uint256",
          "name": "tokenId",
          "type": "uint256"
        }
      ],
      "name": "burn",
      "outputs": [],
      "stateMutability": "nonpayable",
      "type": "function"
    },
    {
      "inputs": [],
      "name": "coreFeature",
      "outputs": [
        {
          "internalType": "string",
          "name": "hw",
          "type": "string"
        }
      ],
      "stateMutability": "nonpayable",
      "type": "function"
    },
    {
      "inputs": [
        {
          "internalType": "uint256",
          "name": "tokenId",
          "type": "uint256"
        }
      ],
      "name": "getApproved",
      "outputs": [
        {
          "internalType": "address",
          "name": "",
          "type": "address"
        }
      ],
      "stateMutability": "view",
      "type": "function"
    },
    {
      "inputs": [],
      "name": "getAvgRating",
      "outputs": [
        {
          "internalType": "uint256",
          "name": "",
          "type": "uint256"
        }
      ],
      "stateMutability": "view",
      "type": "function"
    },
    {
      "inputs": [
        {
          "internalType": "address",
          "name": "userAddress",
          "type": "address"
        }
      ],
      "name": "getTokenId",
      "outputs": [
        {
          "internalType": "int256",
          "name": "",
          "type": "int256"
        }
      ],
      "stateMutability": "view",
      "type": "function"
    },
    {
      "inputs": [
        {
          "internalType": "address",
          "name": "owner",
          "type": "address"
        },
        {
          "internalType": "address",
          "name": "operator",
          "type": "address"
        }
      ],
      "name": "isApprovedForAll",
      "outputs": [
        {
          "internalType": "bool",
          "name": "",
          "type": "bool"
        }
      ],
      "stateMutability": "view",
      "type": "function"
    },
    {
      "inputs": [
        {
          "internalType": "address",
          "name": "forwarder",
          "type": "address"
        }
      ],
      "name": "isTrustedForwarder",
      "outputs": [
        {
          "internalType": "bool",
          "name": "",
          "type": "bool"
        }
      ],
      "stateMutability": "view",
      "type": "function"
    },
    {
      "inputs": [],
      "name": "name",
      "outputs": [
        {
          "internalType": "string",
          "name": "",
          "type": "string"
        }
      ],
      "stateMutability": "view",
      "type": "function"
    },
    {
      "inputs": [
        {
          "internalType": "uint256",
          "name": "tokenId",
          "type": "uint256"
        }
      ],
      "name": "ownerOf",
      "outputs": [
        {
          "internalType": "address",
          "name": "",
          "type": "address"
        }
      ],
      "stateMutability": "view",
      "type": "function"
    },
    {
      "inputs": [
        {
          "internalType": "address",
          "name": "from",
          "type": "address"
        },
        {
          "internalType": "address",
          "name": "to",
          "type": "address"
        },
        {
          "internalType": "uint256",
          "name": "tokenId",
          "type": "uint256"
        }
      ],
      "name": "safeTransferFrom",
      "outputs": [],
      "stateMutability": "nonpayable",
      "type": "function"
    },
    {
      "inputs": [
        {
          "internalType": "address",
          "name": "from",
          "type": "address"
        },
        {
          "internalType": "address",
          "name": "to",
          "type": "address"
        },
        {
          "internalType": "uint256",
          "name": "tokenId",
          "type": "uint256"
        },
        {
          "internalType": "bytes",
          "name": "data",
          "type": "bytes"
        }
      ],
      "name": "safeTransferFrom",
      "outputs": [],
      "stateMutability": "nonpayable",
      "type": "function"
    },
    {
      "inputs": [],
      "name": "senderOwnedToken",
      "outputs": [
        {
          "internalType": "int256",
          "name": "",
          "type": "int256"
        }
      ],
      "stateMutability": "view",
      "type": "function"
    },
    {
      "inputs": [
        {
          "internalType": "address",
          "name": "operator",
          "type": "address"
        },
        {
          "internalType": "bool",
          "name": "approved",
          "type": "bool"
        }
      ],
      "name": "setApprovalForAll",
      "outputs": [],
      "stateMutability": "nonpayable",
      "type": "function"
    },
    {
      "inputs": [
        {
          "internalType": "bytes4",
          "name": "interfaceId",
          "type": "bytes4"
        }
      ],
      "name": "supportsInterface",
      "outputs": [
        {
          "internalType": "bool",
          "name": "",
          "type": "bool"
        }
      ],
      "stateMutability": "view",
      "type": "function"
    },
    {
      "inputs": [],
      "name": "symbol",
      "outputs": [
        {
          "internalType": "string",
          "name": "",
          "type": "string"
        }
      ],
      "stateMutability": "view",
      "type": "function"
    },
    {
      "inputs": [
        {
          "internalType": "uint256",
          "name": "tokenId",
          "type": "uint256"
        }
      ],
      "name": "tokenURI",
      "outputs": [
        {
          "internalType": "string",
          "name": "",
          "type": "string"
        }
      ],
      "stateMutability": "view",
      "type": "function"
    },
    {
      "inputs": [
        {
          "internalType": "address",
          "name": "from",
          "type": "address"
        },
        {
          "internalType": "address",
          "name": "to",
          "type": "address"
        },
        {
          "internalType": "uint256",
          "name": "tokenId",
          "type": "uint256"
        }
      ],
      "name": "transferFrom",
      "outputs": [],
      "stateMutability": "nonpayable",
      "type": "function"
    },
    {
      "inputs": [
        {
          "internalType": "uint256",
          "name": "rating",
          "type": "uint256"
        },
        {
          "internalType": "string",
          "name": "uri",
          "type": "string"
        }
      ],
      "name": "writeReview",
      "outputs": [],
      "stateMutability": "payable",
      "type": "function"
    },
    {
      "stateMutability": "payable",
      "type": "receive"
    }
  ],
  "bytecode": "0x60a06040523480156200001157600080fd5b5073d8253782c45a12053594b9deb72d8e8ab2fca54c6040518060400160405280601081526020016f2932bb34b2bba1b7b63632b1ba34b7b760811b8152506040518060400160405280600681526020016552455649455760d01b8152506001838383816000908162000085919062000157565b50600162000094828262000157565b5050506001600160a01b03166080526008555062000223915050565b634e487b7160e01b600052604160045260246000fd5b600181811c90821680620000db57607f821691505b602082108103620000fc57634e487b7160e01b600052602260045260246000fd5b50919050565b601f82111562000152576000816000526020600020601f850160051c810160208610156200012d5750805b601f850160051c820191505b818110156200014e5782815560010162000139565b5050505b505050565b81516001600160401b03811115620001735762000173620000b0565b6200018b81620001848454620000c6565b8462000102565b602080601f831160018114620001c35760008415620001aa5750858301515b600019600386901b1c1916600185901b1785556200014e565b600085815260208120601f198616915b82811015620001f457888601518255948401946001909101908401620001d3565b5085821015620002135787850151600019600388901b60f8161c191681555b5050505050600190811b01905550565b608051611b03620002466000396000818161025d015261105c0152611b036000f3fe6080604052600436106101235760003560e01c806370a08231116100a0578063b88d4fde11610064578063b88d4fde1461034d578063c1fd55a51461036d578063c87b56dd14610382578063e985e9c5146103a2578063f1537686146103c257600080fd5b806370a08231146102c05780637f96934a146102ee57806395d89b4114610303578063a22cb46514610318578063b3b86d1c1461033857600080fd5b806342842e0e116100e757806342842e0e1461020057806342966c6814610220578063572b6c05146102405780636352211e1461028d578063701003d5146102ad57600080fd5b806301ffc9a71461012f57806306fdde0314610164578063081812fc14610186578063095ea7b3146101be57806323b872dd146101e057600080fd5b3661012a57005b600080fd5b34801561013b57600080fd5b5061014f61014a366004611544565b6103e2565b60405190151581526020015b60405180910390f35b34801561017057600080fd5b506101796103f3565b60405161015b91906115b1565b34801561019257600080fd5b506101a66101a13660046115c4565b610485565b6040516001600160a01b03909116815260200161015b565b3480156101ca57600080fd5b506101de6101d93660046115f2565b6104ae565b005b3480156101ec57600080fd5b506101de6101fb36600461161e565b6104c4565b34801561020c57600080fd5b506101de61021b36600461161e565b61055b565b34801561022c57600080fd5b506101de61023b3660046115c4565b61057b565b34801561024c57600080fd5b5061014f61025b36600461165f565b7f00000000000000000000000000000000000000000000000000000000000000006001600160a01b0390811691161490565b34801561029957600080fd5b506101a66102a83660046115c4565b6105cc565b6101de6102bb366004611708565b6105d7565b3480156102cc57600080fd5b506102e06102db36600461165f565b610870565b60405190815260200161015b565b3480156102fa57600080fd5b506101796108b8565b34801561030f57600080fd5b50610179610948565b34801561032457600080fd5b506101de610333366004611763565b610957565b34801561034457600080fd5b506102e0610969565b34801561035957600080fd5b506101de6103683660046117a1565b6109ce565b34801561037957600080fd5b506102e06109e5565b34801561038e57600080fd5b5061017961039d3660046115c4565b6109f2565b3480156103ae57600080fd5b5061014f6103bd366004611821565b6109fd565b3480156103ce57600080fd5b506102e06103dd36600461165f565b610a2b565b60006103ed82610aef565b92915050565b6060600080546104029061184f565b80601f016020809104026020016040519081016040528092919081815260200182805461042e9061184f565b801561047b5780601f106104505761010080835404028352916020019161047b565b820191906000526020600020905b81548152906001019060200180831161045e57829003601f168201915b5050505050905090565b600061049082610b14565b506000828152600460205260409020546001600160a01b03166103ed565b6104c082826104bb610b4d565b610b57565b5050565b6001600160a01b0382166104f357604051633250574960e11b8152600060048201526024015b60405180910390fd5b60006105078383610502610b4d565b610b64565b9050836001600160a01b0316816001600160a01b031614610555576040516364283d7b60e01b81526001600160a01b03808616600483015260248201849052821660448201526064016104ea565b50505050565b610576838383604051806020016040528060008152506109ce565b505050565b6000818152600e6020526040812060010154600a8054919290916105a090849061189f565b925050819055506001600b60008282546105ba919061189f565b909155506105c9905081610c5d565b50565b60006103ed82610b14565b6105df6109e5565b600019146106395760405162461bcd60e51b815260206004820152602160248201527f596f75206861766520616c7265616479207772697474656e20612072657669656044820152607760f81b60648201526084016104ea565b600c6000610645610b4d565b6001600160a01b0316815260208101919091526040016000205460ff166106e65760405162461bcd60e51b815260206004820152604960248201527f596f75206172656e277420656c696769626c6520666f722077726974696e672060448201527f61207265766965772c20796f75206d7573742075736520736f6d652066756e6360648201526874696f6e616c69747960b81b608482015260a4016104ea565b600182101580156106f85750600a8211155b6107445760405162461bcd60e51b815260206004820152601f60248201527f526174696e67206d757374206265206265747765656e203120616e642031300060448201526064016104ea565b6000610757610751610b4d565b83610c6b565b90506040518060600160405280828152602001848152602001610778610b4d565b6001600160a01b039081169091526000838152600e60209081526040808320855181559185015160018301559390930151600290930180546001600160a01b03191693909216929092179055600d906107cf610b4d565b6001600160a01b0316815260208101919091526040016000205460ff1661083a576108036107fb610b4d565b600854610ca0565b6001600d6000610811610b4d565b6001600160a01b031681526020810191909152604001600020805460ff19169115159190911790555b82600a600082825461084c91906118b2565b925050819055506001600b600082825461086691906118b2565b9091555050505050565b60006001600160a01b03821661089c576040516322718ad960e21b8152600060048201526024016104ea565b506001600160a01b031660009081526003602052604090205490565b60606001600c60006108c8610b4d565b6001600160a01b0316815260208101919091526040016000908120805460ff191692151592909217909155600d816108fe610b4d565b6001600160a01b031681526020808201929092526040908101600020805460ff1916931515939093179092558151808301909252600582526468656c6c6f60d81b90820152919050565b6060600180546104029061184f565b6104c0610962610b4d565b8383610d28565b600080600b54116109ad5760405162461bcd60e51b815260206004820152600e60248201526d139bc81c995d9a595ddcc81e595d60921b60448201526064016104ea565b600b54600a546109bf906103e86118c5565b6109c991906118dc565b905090565b6109d98484846104c4565b61055584848484610dc7565b60006109c96103dd610b4d565b60606103ed82610ef7565b6001600160a01b03918216600090815260056020908152604080832093909416825291909152205460ff1690565b600080610a3783610870565b90508015610ae55760005b6007548111610ae3576040516331a9108f60e11b8152600481018290523090636352211e90602401602060405180830381865afa925050508015610aa3575060408051601f3d908101601f19168201909252610aa0918101906118fe565b60015b15610ad15750836001600160a01b0316610abc826105cc565b6001600160a01b031603610ad1579392505050565b80610adb8161191b565b915050610a42565b505b5060001992915050565b60006001600160e01b03198216632483248360e11b14806103ed57506103ed82611008565b6000818152600260205260408120546001600160a01b0316806103ed57604051637e27328960e01b8152600481018490526024016104ea565b60006109c9611058565b610576838383600161109c565b6000828152600260205260408120546001600160a01b0390811690831615610b9157610b918184866111a2565b6001600160a01b03811615610bcf57610bae60008560008061109c565b6001600160a01b038116600090815260036020526040902080546000190190555b6001600160a01b03851615610bfe576001600160a01b0385166000908152600360205260409020805460010190555b60008481526002602052604080822080546001600160a01b0319166001600160a01b0389811691821790925591518793918516917fddf252ad1be2c89b69c2b068fc378daa952ba7f163c4a11628f55a4df523b3ef91a4949350505050565b6104c0600082610502610b4d565b6007805460009182919082610c7f8361191b565b919050559050610c8f8482611206565b610c998184611220565b9392505050565b600854471015610cf25760405162461bcd60e51b815260206004820181905260248201527f436f6e74726163742062616c616e636520697320696e73756666696369656e7460448201526064016104ea565b6040516001600160a01b0383169082156108fc029083906000818181858888f19350505050158015610576573d6000803e3d6000fd5b6001600160a01b038216610d5a57604051630b61174360e31b81526001600160a01b03831660048201526024016104ea565b6001600160a01b03838116600081815260056020908152604080832094871680845294825291829020805460ff191686151590811790915591519182527f17307eab39ab6107e8899845ad3d59bd9653f200f220920489ca2b5937696c31910160405180910390a3505050565b6001600160a01b0383163b1561055557826001600160a01b031663150b7a02610dee610b4d565b8685856040518563ffffffff1660e01b8152600401610e109493929190611934565b6020604051808303816000875af1925050508015610e4b575060408051601f3d908101601f19168201909252610e4891810190611971565b60015b610eb4573d808015610e79576040519150601f19603f3d011682016040523d82523d6000602084013e610e7e565b606091505b508051600003610eac57604051633250574960e11b81526001600160a01b03851660048201526024016104ea565b805181602001fd5b6001600160e01b03198116630a85bd0160e11b14610ef057604051633250574960e11b81526001600160a01b03851660048201526024016104ea565b5050505050565b6060610f0282610b14565b5060008281526006602052604081208054610f1c9061184f565b80601f0160208091040260200160405190810160405280929190818152602001828054610f489061184f565b8015610f955780601f10610f6a57610100808354040283529160200191610f95565b820191906000526020600020905b815481529060010190602001808311610f7857829003601f168201915b505050505090506000610fb360408051602081019091526000815290565b90508051600003610fc5575092915050565b815115610ff7578082604051602001610fdf92919061198e565b60405160208183030381529060405292505050919050565b61100084611270565b949350505050565b60006001600160e01b031982166380ac58cd60e01b148061103957506001600160e01b03198216635b5e139f60e01b145b806103ed57506301ffc9a760e01b6001600160e01b03198316146103ed565b60007f00000000000000000000000000000000000000000000000000000000000000006001600160a01b03163303611097575060131936013560601c90565b503390565b80806110b057506001600160a01b03821615155b156111725760006110c084610b14565b90506001600160a01b038316158015906110ec5750826001600160a01b0316816001600160a01b031614155b80156110ff57506110fd81846109fd565b155b156111285760405163a9fbf51f60e01b81526001600160a01b03841660048201526024016104ea565b81156111705783856001600160a01b0316826001600160a01b03167f8c5be1e5ebec7d5bd14f71427d1e84f3dd0314c0f7b2291e5b200ac8c7c3b92560405160405180910390a45b505b5050600090815260046020526040902080546001600160a01b0319166001600160a01b0392909216919091179055565b6111ad8383836112e4565b610576576001600160a01b0383166111db57604051637e27328960e01b8152600481018290526024016104ea565b60405163177e802f60e01b81526001600160a01b0383166004820152602481018290526044016104ea565b6104c0828260405180602001604052806000815250611347565b60008281526006602052604090206112388282611a0d565b506040518281527ff8e1a15aba9398e019f0b49df1a4fde98ee17ae345cb5f6b5e2c27f5033e8ce79060200160405180910390a15050565b606061127b82610b14565b50600061129360408051602081019091526000815290565b905060008151116112b35760405180602001604052806000815250610c99565b806112bd8461135e565b6040516020016112ce92919061198e565b6040516020818303038152906040529392505050565b60006001600160a01b038316158015906110005750826001600160a01b0316846001600160a01b0316148061131e575061131e84846109fd565b806110005750506000908152600460205260409020546001600160a01b03908116911614919050565b61135183836113f1565b6105766000848484610dc7565b6060600061136b83611456565b600101905060008167ffffffffffffffff81111561138b5761138b61167c565b6040519080825280601f01601f1916602001820160405280156113b5576020820181803683370190505b5090508181016020015b600019016f181899199a1a9b1b9c1cb0b131b232b360811b600a86061a8153600a85049450846113bf57509392505050565b6001600160a01b03821661141b57604051633250574960e11b8152600060048201526024016104ea565b600061142983836000610b64565b90506001600160a01b03811615610576576040516339e3563760e11b8152600060048201526024016104ea565b60008072184f03e93ff9f4daa797ed6e38ed64bf6a1f0160401b83106114955772184f03e93ff9f4daa797ed6e38ed64bf6a1f0160401b830492506040015b6d04ee2d6d415b85acef810000000083106114c1576d04ee2d6d415b85acef8100000000830492506020015b662386f26fc1000083106114df57662386f26fc10000830492506010015b6305f5e10083106114f7576305f5e100830492506008015b612710831061150b57612710830492506004015b6064831061151d576064830492506002015b600a83106103ed5760010192915050565b6001600160e01b0319811681146105c957600080fd5b60006020828403121561155657600080fd5b8135610c998161152e565b60005b8381101561157c578181015183820152602001611564565b50506000910152565b6000815180845261159d816020860160208601611561565b601f01601f19169290920160200192915050565b602081526000610c996020830184611585565b6000602082840312156115d657600080fd5b5035919050565b6001600160a01b03811681146105c957600080fd5b6000806040838503121561160557600080fd5b8235611610816115dd565b946020939093013593505050565b60008060006060848603121561163357600080fd5b833561163e816115dd565b9250602084013561164e816115dd565b929592945050506040919091013590565b60006020828403121561167157600080fd5b8135610c99816115dd565b634e487b7160e01b600052604160045260246000fd5b600067ffffffffffffffff808411156116ad576116ad61167c565b604051601f8501601f19908116603f011681019082821181831017156116d5576116d561167c565b816040528093508581528686860111156116ee57600080fd5b858560208301376000602087830101525050509392505050565b6000806040838503121561171b57600080fd5b82359150602083013567ffffffffffffffff81111561173957600080fd5b8301601f8101851361174a57600080fd5b61175985823560208401611692565b9150509250929050565b6000806040838503121561177657600080fd5b8235611781816115dd565b91506020830135801515811461179657600080fd5b809150509250929050565b600080600080608085870312156117b757600080fd5b84356117c2816115dd565b935060208501356117d2816115dd565b925060408501359150606085013567ffffffffffffffff8111156117f557600080fd5b8501601f8101871361180657600080fd5b61181587823560208401611692565b91505092959194509250565b6000806040838503121561183457600080fd5b823561183f816115dd565b91506020830135611796816115dd565b600181811c9082168061186357607f821691505b60208210810361188357634e487b7160e01b600052602260045260246000fd5b50919050565b634e487b7160e01b600052601160045260246000fd5b818103818111156103ed576103ed611889565b808201808211156103ed576103ed611889565b80820281158282048414176103ed576103ed611889565b6000826118f957634e487b7160e01b600052601260045260246000fd5b500490565b60006020828403121561191057600080fd5b8151610c99816115dd565b60006001820161192d5761192d611889565b5060010190565b6001600160a01b038581168252841660208201526040810183905260806060820181905260009061196790830184611585565b9695505050505050565b60006020828403121561198357600080fd5b8151610c998161152e565b600083516119a0818460208801611561565b8351908301906119b4818360208801611561565b01949350505050565b601f821115610576576000816000526020600020601f850160051c810160208610156119e65750805b601f850160051c820191505b81811015611a05578281556001016119f2565b505050505050565b815167ffffffffffffffff811115611a2757611a2761167c565b611a3b81611a35845461184f565b846119bd565b602080601f831160018114611a705760008415611a585750858301515b600019600386901b1c1916600185901b178555611a05565b600085815260208120601f198616915b82811015611a9f57888601518255948401946001909101908401611a80565b5085821015611abd5787850151600019600388901b60f8161c191681555b5050505050600190811b0190555056fea2646970667358221220e4230338fe8334285f20e52c977297133d9732e7f9408d59f6a28c59e911386064736f6c63430008180033",
  "linkReferences": {},
  "deployedLinkReferences": {}
}